{
  "_format": "hh-sol-artifact-1",
  "contractName": "LoanNftV2",
  "sourceName": "contracts/NFTLoanV2.sol",
  "abi": [
    {
      "inputs": [
        {
          "internalType": "address",
          "name": "_namoAddress",
          "type": "address"
        },
        {
          "internalType": "uint256",
          "name": "_taxPercentage",
          "type": "uint256"
        },
        {
          "internalType": "address",
          "name": "_signer",
          "type": "address"
        },
        {
          "internalType": "address",
          "name": "_erc721WrappedAddress",
          "type": "address"
        }
      ],
      "stateMutability": "nonpayable",
      "type": "constructor"
    },
    {
      "anonymous": false,
      "inputs": [
        {
          "indexed": false,
          "internalType": "address",
          "name": "lender",
          "type": "address"
        },
        {
          "indexed": false,
          "internalType": "address",
          "name": "tokenAddress",
          "type": "address"
        },
        {
          "indexed": false,
          "internalType": "uint256",
          "name": "itemId",
          "type": "uint256"
        },
        {
          "indexed": false,
          "internalType": "uint256",
          "name": "marketItem",
          "type": "uint256"
        }
      ],
      "name": "DelistItem",
      "type": "event"
    },
    {
      "anonymous": false,
      "inputs": [
        {
          "indexed": false,
          "internalType": "address",
          "name": "lender",
          "type": "address"
        },
        {
          "indexed": false,
          "internalType": "address",
          "name": "tokenAddress",
          "type": "address"
        },
        {
          "indexed": false,
          "internalType": "uint256",
          "name": "itemId",
          "type": "uint256"
        },
        {
          "indexed": false,
          "internalType": "uint256",
          "name": "marketItem",
          "type": "uint256"
        },
        {
          "indexed": false,
          "internalType": "uint256[]",
          "name": "duration",
          "type": "uint256[]"
        },
        {
          "indexed": false,
          "internalType": "uint256[]",
          "name": "price",
          "type": "uint256[]"
        },
        {
          "indexed": false,
          "internalType": "address",
          "name": "paymentToken",
          "type": "address"
        }
      ],
      "name": "EditItem",
      "type": "event"
    },
    {
      "anonymous": false,
      "inputs": [
        {
          "indexed": false,
          "internalType": "address",
          "name": "lender",
          "type": "address"
        },
        {
          "indexed": false,
          "internalType": "address",
          "name": "tokenAddress",
          "type": "address"
        },
        {
          "indexed": false,
          "internalType": "uint256",
          "name": "itemId",
          "type": "uint256"
        },
        {
          "indexed": false,
          "internalType": "uint256",
          "name": "marketItem",
          "type": "uint256"
        },
        {
          "indexed": false,
          "internalType": "uint256[]",
          "name": "duration",
          "type": "uint256[]"
        },
        {
          "indexed": false,
          "internalType": "uint256[]",
          "name": "price",
          "type": "uint256[]"
        },
        {
          "indexed": false,
          "internalType": "address",
          "name": "paymentToken",
          "type": "address"
        },
        {
          "indexed": false,
          "internalType": "uint256",
          "name": "wrappedTokenId",
          "type": "uint256"
        }
      ],
      "name": "ListItem",
      "type": "event"
    },
    {
      "anonymous": false,
      "inputs": [
        {
          "indexed": true,
          "internalType": "address",
          "name": "previousOwner",
          "type": "address"
        },
        {
          "indexed": true,
          "internalType": "address",
          "name": "newOwner",
          "type": "address"
        }
      ],
      "name": "OwnershipTransferred",
      "type": "event"
    },
    {
      "anonymous": false,
      "inputs": [
        {
          "indexed": false,
          "internalType": "address",
          "name": "lender",
          "type": "address"
        },
        {
          "indexed": false,
          "internalType": "address",
          "name": "renter",
          "type": "address"
        },
        {
          "indexed": false,
          "internalType": "address",
          "name": "tokenAddress",
          "type": "address"
        },
        {
          "indexed": false,
          "internalType": "uint256",
          "name": "itemId",
          "type": "uint256"
        },
        {
          "indexed": false,
          "internalType": "uint256",
          "name": "marketItem",
          "type": "uint256"
        },
        {
          "indexed": false,
          "internalType": "uint256",
          "name": "packageIndex",
          "type": "uint256"
        },
        {
          "indexed": false,
          "internalType": "address",
          "name": "paymentToken",
          "type": "address"
        },
        {
          "indexed": false,
          "internalType": "uint256",
          "name": "gasPrice",
          "type": "uint256"
        }
      ],
      "name": "RentItem",
      "type": "event"
    },
    {
      "anonymous": false,
      "inputs": [
        {
          "indexed": false,
          "internalType": "address",
          "name": "lender",
          "type": "address"
        },
        {
          "indexed": false,
          "internalType": "address",
          "name": "proxyAddress",
          "type": "address"
        },
        {
          "indexed": false,
          "internalType": "address",
          "name": "tokenAddress",
          "type": "address"
        },
        {
          "indexed": false,
          "internalType": "uint256",
          "name": "tokenId",
          "type": "uint256"
        },
        {
          "indexed": false,
          "internalType": "uint256",
          "name": "marketItem",
          "type": "uint256"
        }
      ],
      "name": "Return",
      "type": "event"
    },
    {
      "inputs": [],
      "name": "HIRE_NFT_WITH_SIG_TYPEHASH",
      "outputs": [
        {
          "internalType": "bytes32",
          "name": "",
          "type": "bytes32"
        }
      ],
      "stateMutability": "view",
      "type": "function"
    },
    {
      "inputs": [],
      "name": "NFT721",
      "outputs": [
        {
          "internalType": "contract IERC721",
          "name": "",
          "type": "address"
        }
      ],
      "stateMutability": "view",
      "type": "function"
    },
    {
      "inputs": [
        {
          "internalType": "address",
          "name": "",
          "type": "address"
        }
      ],
      "name": "_hireNftSigNonces",
      "outputs": [
        {
          "internalType": "uint256",
          "name": "",
          "type": "uint256"
        }
      ],
      "stateMutability": "view",
      "type": "function"
    },
    {
      "inputs": [
        {
          "internalType": "uint256",
          "name": "",
          "type": "uint256"
        }
      ],
      "name": "_itemToPackages",
      "outputs": [
        {
          "internalType": "address",
          "name": "paymentToken",
          "type": "address"
        },
        {
          "internalType": "address",
          "name": "tokenAddress",
          "type": "address"
        },
        {
          "internalType": "uint256",
          "name": "tokenId",
          "type": "uint256"
        },
        {
          "internalType": "uint256",
          "name": "marketId",
          "type": "uint256"
        }
      ],
      "stateMutability": "view",
      "type": "function"
    },
    {
      "inputs": [
        {
          "internalType": "uint256",
          "name": "",
          "type": "uint256"
        }
      ],
      "name": "_lastHireItem",
      "outputs": [
        {
          "internalType": "uint256",
          "name": "",
          "type": "uint256"
        }
      ],
      "stateMutability": "view",
      "type": "function"
    },
    {
      "inputs": [],
      "name": "_marketIds",
      "outputs": [
        {
          "internalType": "uint256",
          "name": "_value",
          "type": "uint256"
        }
      ],
      "stateMutability": "view",
      "type": "function"
    },
    {
      "inputs": [
        {
          "internalType": "uint256",
          "name": "",
          "type": "uint256"
        }
      ],
      "name": "_marketToRenter",
      "outputs": [
        {
          "internalType": "address",
          "name": "",
          "type": "address"
        }
      ],
      "stateMutability": "view",
      "type": "function"
    },
    {
      "inputs": [
        {
          "internalType": "address",
          "name": "",
          "type": "address"
        },
        {
          "internalType": "uint256",
          "name": "",
          "type": "uint256"
        }
      ],
      "name": "_nftToMarketId",
      "outputs": [
        {
          "internalType": "uint256",
          "name": "",
          "type": "uint256"
        }
      ],
      "stateMutability": "view",
      "type": "function"
    },
    {
      "inputs": [
        {
          "internalType": "uint256",
          "name": "",
          "type": "uint256"
        }
      ],
      "name": "_packageToLender",
      "outputs": [
        {
          "internalType": "address",
          "name": "",
          "type": "address"
        }
      ],
      "stateMutability": "view",
      "type": "function"
    },
    {
      "inputs": [
        {
          "internalType": "uint256",
          "name": "",
          "type": "uint256"
        }
      ],
      "name": "_packageToRental",
      "outputs": [
        {
          "internalType": "uint256",
          "name": "",
          "type": "uint256"
        }
      ],
      "stateMutability": "view",
      "type": "function"
    },
    {
      "inputs": [
        {
          "internalType": "uint256",
          "name": "",
          "type": "uint256"
        }
      ],
      "name": "_proxyOwner",
      "outputs": [
        {
          "internalType": "address",
          "name": "",
          "type": "address"
        }
      ],
      "stateMutability": "view",
      "type": "function"
    },
    {
      "inputs": [
        {
          "internalType": "uint256",
          "name": "_marketId",
          "type": "uint256"
        }
      ],
      "name": "delistItem",
      "outputs": [],
      "stateMutability": "nonpayable",
      "type": "function"
    },
    {
      "inputs": [
        {
          "internalType": "address",
          "name": "_nftAddress",
          "type": "address"
        },
        {
          "internalType": "uint256",
          "name": "_item",
          "type": "uint256"
        }
      ],
      "name": "delistItemByNft",
      "outputs": [],
      "stateMutability": "nonpayable",
      "type": "function"
    },
    {
      "inputs": [
        {
          "internalType": "uint256",
          "name": "_marketId",
          "type": "uint256"
        },
        {
          "internalType": "uint256[]",
          "name": "_durations",
          "type": "uint256[]"
        },
        {
          "internalType": "uint256[]",
          "name": "_prices",
          "type": "uint256[]"
        },
        {
          "internalType": "address",
          "name": "_paymentToken",
          "type": "address"
        }
      ],
      "name": "editItem",
      "outputs": [],
      "stateMutability": "nonpayable",
      "type": "function"
    },
    {
      "inputs": [],
      "name": "erc721WrappedAddress",
      "outputs": [
        {
          "internalType": "address",
          "name": "",
          "type": "address"
        }
      ],
      "stateMutability": "view",
      "type": "function"
    },
    {
      "inputs": [],
      "name": "gasUnitToCharge",
      "outputs": [
        {
          "internalType": "uint256",
          "name": "",
          "type": "uint256"
        }
      ],
      "stateMutability": "view",
      "type": "function"
    },
    {
      "inputs": [],
      "name": "getListedItem",
      "outputs": [
        {
          "components": [
            {
              "internalType": "uint256[]",
              "name": "duration",
              "type": "uint256[]"
            },
            {
              "internalType": "uint256[]",
              "name": "price",
              "type": "uint256[]"
            },
            {
              "internalType": "address",
              "name": "paymentToken",
              "type": "address"
            },
            {
              "internalType": "address",
              "name": "tokenAddress",
              "type": "address"
            },
            {
              "internalType": "uint256",
              "name": "tokenId",
              "type": "uint256"
            },
            {
              "internalType": "uint256",
              "name": "marketId",
              "type": "uint256"
            }
          ],
          "internalType": "struct LoanNftV2.Package[]",
          "name": "",
          "type": "tuple[]"
        }
      ],
      "stateMutability": "view",
      "type": "function"
    },
    {
      "inputs": [
        {
          "internalType": "address",
          "name": "_proxyAddress",
          "type": "address"
        },
        {
          "internalType": "uint256",
          "name": "_marketId",
          "type": "uint256"
        },
        {
          "internalType": "uint256",
          "name": "_packageIndex",
          "type": "uint256"
        },
        {
          "internalType": "uint256",
          "name": "_deadline",
          "type": "uint256"
        },
        {
          "internalType": "bytes",
          "name": "_signature",
          "type": "bytes"
        }
      ],
      "name": "hireItemWithSig",
      "outputs": [],
      "stateMutability": "payable",
      "type": "function"
    },
    {
      "inputs": [
        {
          "internalType": "address",
          "name": "_nftAddress",
          "type": "address"
        },
        {
          "internalType": "uint256",
          "name": "_item",
          "type": "uint256"
        },
        {
          "internalType": "uint256[]",
          "name": "_durations",
          "type": "uint256[]"
        },
        {
          "internalType": "uint256[]",
          "name": "_prices",
          "type": "uint256[]"
        },
        {
          "internalType": "address",
          "name": "_paymentToken",
          "type": "address"
        }
      ],
      "name": "listItem",
      "outputs": [],
      "stateMutability": "nonpayable",
      "type": "function"
    },
    {
      "inputs": [],
      "name": "namoAddress",
      "outputs": [
        {
          "internalType": "address",
          "name": "",
          "type": "address"
        }
      ],
      "stateMutability": "view",
      "type": "function"
    },
    {
      "inputs": [
        {
          "internalType": "address",
          "name": "",
          "type": "address"
        },
        {
          "internalType": "uint256",
          "name": "",
          "type": "uint256"
        }
      ],
      "name": "nftToWrappedNftId",
      "outputs": [
        {
          "internalType": "uint256",
          "name": "",
          "type": "uint256"
        }
      ],
      "stateMutability": "view",
      "type": "function"
    },
    {
      "inputs": [
        {
          "internalType": "address",
          "name": "operator",
          "type": "address"
        },
        {
          "internalType": "address",
          "name": "from",
          "type": "address"
        },
        {
          "internalType": "uint256",
          "name": "tokenId",
          "type": "uint256"
        },
        {
          "internalType": "bytes",
          "name": "data",
          "type": "bytes"
        }
      ],
      "name": "onERC721Received",
      "outputs": [
        {
          "internalType": "bytes4",
          "name": "",
          "type": "bytes4"
        }
      ],
      "stateMutability": "pure",
      "type": "function"
    },
    {
      "inputs": [],
      "name": "owner",
      "outputs": [
        {
          "internalType": "address",
          "name": "",
          "type": "address"
        }
      ],
      "stateMutability": "view",
      "type": "function"
    },
    {
      "inputs": [],
      "name": "renounceOwnership",
      "outputs": [],
      "stateMutability": "nonpayable",
      "type": "function"
    },
    {
      "inputs": [
        {
          "internalType": "uint256",
          "name": "_marketId",
          "type": "uint256"
        }
      ],
      "name": "returnItem",
      "outputs": [],
      "stateMutability": "nonpayable",
      "type": "function"
    },
    {
      "inputs": [
        {
          "internalType": "address",
          "name": "_nftAddress",
          "type": "address"
        },
        {
          "internalType": "uint256",
          "name": "_item",
          "type": "uint256"
        }
      ],
      "name": "returnItemByNft",
      "outputs": [],
      "stateMutability": "nonpayable",
      "type": "function"
    },
    {
      "inputs": [
        {
          "internalType": "uint256",
          "name": "_gasUnitToCharge",
          "type": "uint256"
        }
      ],
      "name": "setGasToCharge",
      "outputs": [],
      "stateMutability": "nonpayable",
      "type": "function"
    },
    {
      "inputs": [
        {
          "internalType": "address",
          "name": "_signer",
          "type": "address"
        }
      ],
      "name": "setSigner",
      "outputs": [],
      "stateMutability": "nonpayable",
      "type": "function"
    },
    {
      "inputs": [],
      "name": "signer",
      "outputs": [
        {
          "internalType": "address",
          "name": "",
          "type": "address"
        }
      ],
      "stateMutability": "view",
      "type": "function"
    },
    {
      "inputs": [],
      "name": "taxPercentage",
      "outputs": [
        {
          "internalType": "uint256",
          "name": "",
          "type": "uint256"
        }
      ],
      "stateMutability": "view",
      "type": "function"
    },
    {
      "inputs": [
        {
          "internalType": "address",
          "name": "newOwner",
          "type": "address"
        }
      ],
      "name": "transferOwnership",
      "outputs": [],
      "stateMutability": "nonpayable",
      "type": "function"
    }
  ],
  "bytecode": "0x60806040526202bf206010553480156200001857600080fd5b50604051620055863803806200558683398181016040528101906200003e9190620002a3565b6200005e620000526200013260201b60201c565b6200013a60201b60201c565b83600260006101000a81548173ffffffffffffffffffffffffffffffffffffffff021916908373ffffffffffffffffffffffffffffffffffffffff1602179055508260038190555081600460006101000a81548173ffffffffffffffffffffffffffffffffffffffff021916908373ffffffffffffffffffffffffffffffffffffffff16021790555080600560006101000a81548173ffffffffffffffffffffffffffffffffffffffff021916908373ffffffffffffffffffffffffffffffffffffffff1602179055505050505062000315565b600033905090565b60008060009054906101000a900473ffffffffffffffffffffffffffffffffffffffff169050816000806101000a81548173ffffffffffffffffffffffffffffffffffffffff021916908373ffffffffffffffffffffffffffffffffffffffff1602179055508173ffffffffffffffffffffffffffffffffffffffff168173ffffffffffffffffffffffffffffffffffffffff167f8be0079c531659141344cd1fd0a4f28419497f9722a3daafe3b4186f6b6457e060405160405180910390a35050565b600080fd5b600073ffffffffffffffffffffffffffffffffffffffff82169050919050565b6000620002308262000203565b9050919050565b620002428162000223565b81146200024e57600080fd5b50565b600081519050620002628162000237565b92915050565b6000819050919050565b6200027d8162000268565b81146200028957600080fd5b50565b6000815190506200029d8162000272565b92915050565b60008060008060808587031215620002c057620002bf620001fe565b5b6000620002d08782880162000251565b9450506020620002e3878288016200028c565b9350506040620002f68782880162000251565b9250506060620003098782880162000251565b91505092959194509250565b61526180620003256000396000f3fe6080604052600436106101d85760003560e01c80634bff201f116101025780638da5cb5b11610095578063b0c9679d11610064578063b0c9679d146106fb578063c0623cfb14610724578063f2fde38b14610740578063f337b21a14610769576101d8565b80638da5cb5b1461063d5780638e7b4418146106685780639a5b326314610693578063ae7b6d16146106d0576101d8565b8063711316db116100d1578063711316db14610580578063715018a6146105bd57806376db684a146105d457806383ee225814610614576101d8565b80634bff201f146104b25780635216da1f146104dd5780636894c0951461051a5780636c19e78314610557576101d8565b8063238ac9331161017a57806334df19a61161014957806334df19a6146103e4578063399ae640146104215780633aabd37b1461045e5780634a83692c14610487576101d8565b8063238ac9331461032a57806324d8ffc614610355578063272878ee146103925780632f8cb3de146103bb576101d8565b8063150b7a02116101b6578063150b7a021461025c5780631653faf514610299578063223ed1dd146102c457806323476cbb146102ed576101d8565b8063034b02d8146101dd578063100616311461020857806311a4ecc914610231575b600080fd5b3480156101e957600080fd5b506101f2610794565b6040516101ff91906135af565b60405180910390f35b34801561021457600080fd5b5061022f600480360381019061022a9190613614565b6107b8565b005b34801561023d57600080fd5b50610246610b2d565b6040516102539190613682565b60405180910390f35b34801561026857600080fd5b50610283600480360381019061027e919061372e565b610b53565b60405161029091906137f1565b60405180910390f35b3480156102a557600080fd5b506102ae610b68565b6040516102bb919061381b565b60405180910390f35b3480156102d057600080fd5b506102eb60048036038101906102e69190613614565b610b6e565b005b3480156102f957600080fd5b50610314600480360381019061030f9190613614565b611184565b604051610321919061381b565b60405180910390f35b34801561033657600080fd5b5061033f61119c565b60405161034c9190613682565b60405180910390f35b34801561036157600080fd5b5061037c60048036038101906103779190613614565b6111c2565b604051610389919061381b565b60405180910390f35b34801561039e57600080fd5b506103b960048036038101906103b4919061388c565b6111da565b005b3480156103c757600080fd5b506103e260048036038101906103dd9190613948565b6117ec565b005b3480156103f057600080fd5b5061040b60048036038101906104069190613614565b61184f565b6040516104189190613682565b60405180910390f35b34801561042d57600080fd5b5061044860048036038101906104439190613948565b611882565b604051610455919061381b565b60405180910390f35b34801561046a57600080fd5b5061048560048036038101906104809190613948565b6118a7565b005b34801561049357600080fd5b5061049c61190a565b6040516104a99190613682565b60405180910390f35b3480156104be57600080fd5b506104c7611930565b6040516104d4919061381b565b60405180910390f35b3480156104e957600080fd5b5061050460048036038101906104ff9190613948565b61193c565b604051610511919061381b565b60405180910390f35b34801561052657600080fd5b50610541600480360381019061053c9190613614565b611961565b60405161054e9190613682565b60405180910390f35b34801561056357600080fd5b5061057e60048036038101906105799190613988565b611994565b005b34801561058c57600080fd5b506105a760048036038101906105a29190613614565b6119e0565b6040516105b49190613682565b60405180910390f35b3480156105c957600080fd5b506105d2611a13565b005b3480156105e057600080fd5b506105fb60048036038101906105f69190613614565b611a27565b60405161060b94939291906139b5565b60405180910390f35b34801561062057600080fd5b5061063b600480360381019061063691906139fa565b611a97565b005b34801561064957600080fd5b50610652611d77565b60405161065f9190613682565b60405180910390f35b34801561067457600080fd5b5061067d611da0565b60405161068a9190613b00565b60405180910390f35b34801561069f57600080fd5b506106ba60048036038101906106b59190613988565b611dc6565b6040516106c7919061381b565b60405180910390f35b3480156106dc57600080fd5b506106e5611dde565b6040516106f2919061381b565b60405180910390f35b34801561070757600080fd5b50610722600480360381019061071d9190613614565b611de4565b005b61073e60048036038101906107399190613b1b565b611df6565b005b34801561074c57600080fd5b5061076760048036038101906107629190613988565b612372565b005b34801561077557600080fd5b5061077e6123f6565b60405161078b9190613dd4565b60405180910390f35b7f3c0f25aaf740d1eb22a45ec2419afa8a9f94960ecf48e9109d79db2d5834b6e981565b3373ffffffffffffffffffffffffffffffffffffffff16600a600083815260200190815260200160002060009054906101000a900473ffffffffffffffffffffffffffffffffffffffff1673ffffffffffffffffffffffffffffffffffffffff1614610859576040517f08c379a000000000000000000000000000000000000000000000000000000000815260040161085090613e79565b60405180910390fd5b60006007600083815260200190815260200160002060030160009054906101000a900473ffffffffffffffffffffffffffffffffffffffff169050600060076000848152602001908152602001600020600401549050600a600084815260200190815260200160002060006101000a81549073ffffffffffffffffffffffffffffffffffffffff0219169055600860008373ffffffffffffffffffffffffffffffffffffffff1673ffffffffffffffffffffffffffffffffffffffff168152602001908152602001600020600060076000868152602001908152602001600020600401548152602001908152602001600020600090556007600084815260200190815260200160002060008082016000610973919061345c565b600182016000610983919061345c565b6002820160006101000a81549073ffffffffffffffffffffffffffffffffffffffff02191690556003820160006101000a81549073ffffffffffffffffffffffffffffffffffffffff021916905560048201600090556005820160009055505060008273ffffffffffffffffffffffffffffffffffffffff166323b872dd303385604051602401610a1693929190613e99565b6040516020818303038152906040529060e01b6020820180517bffffffffffffffffffffffffffffffffffffffffffffffffffffffff8381831617835250505050604051610a649190613f4a565b6000604051808303816000865af19150503d8060008114610aa1576040519150601f19603f3d011682016040523d82523d6000602084013e610aa6565b606091505b5050905080610aea576040517f08c379a0000000000000000000000000000000000000000000000000000000008152600401610ae190613fd3565b60405180910390fd5b7fc02006e7f38baf51d4a17822aecd3e19ea3ff9ae0cea94ef6332a6c60b9a8ea933848487604051610b1f94939291906139b5565b60405180910390a150505050565b600260009054906101000a900473ffffffffffffffffffffffffffffffffffffffff1681565b600063150b7a0260e01b905095945050505050565b60105481565b600d600082815260200190815260200160002054421015610bc4576040517f08c379a0000000000000000000000000000000000000000000000000000000008152600401610bbb9061403f565b60405180910390fd5b3373ffffffffffffffffffffffffffffffffffffffff16600e600083815260200190815260200160002060009054906101000a900473ffffffffffffffffffffffffffffffffffffffff1673ffffffffffffffffffffffffffffffffffffffff1614610c65576040517f08c379a0000000000000000000000000000000000000000000000000000000008152600401610c5c906140d1565b60405180910390fd5b600060606000600e600085815260200190815260200160002060009054906101000a900473ffffffffffffffffffffffffffffffffffffffff1690506000600b6000868152602001908152602001600020549050600e600086815260200190815260200160002060006101000a81549073ffffffffffffffffffffffffffffffffffffffff0219169055600d600086815260200190815260200160002060009055600b6000868152602001908152602001600020600090556007600086815260200190815260200160002060020160009054906101000a900473ffffffffffffffffffffffffffffffffffffffff1673ffffffffffffffffffffffffffffffffffffffff1663a9059cbb600a600088815260200190815260200160002060009054906101000a900473ffffffffffffffffffffffffffffffffffffffff1683604051602401610db59291906140f1565b6040516020818303038152906040529060e01b6020820180517bffffffffffffffffffffffffffffffffffffffffffffffffffffffff8381831617835250505050604051610e039190613f4a565b6000604051808303816000865af19150503d8060008114610e40576040519150601f19603f3d011682016040523d82523d6000602084013e610e45565b606091505b508094508195505050838390610e91576040517f08c379a0000000000000000000000000000000000000000000000000000000008152600401610e88919061416f565b60405180910390fd5b506007600086815260200190815260200160002060030160009054906101000a900473ffffffffffffffffffffffffffffffffffffffff1673ffffffffffffffffffffffffffffffffffffffff166323b872dd3330600760008a815260200190815260200160002060040154604051602401610f0f93929190613e99565b6040516020818303038152906040529060e01b6020820180517bffffffffffffffffffffffffffffffffffffffffffffffffffffffff8381831617835250505050604051610f5d9190613f4a565b6000604051808303816000865af19150503d8060008114610f9a576040519150601f19603f3d011682016040523d82523d6000602084013e610f9f565b606091505b50508094505083610fe5576040517f08c379a0000000000000000000000000000000000000000000000000000000008152600401610fdc90613fd3565b60405180910390fd5b6110bf600f600087815260200190815260200160002060009054906101000a900473ffffffffffffffffffffffffffffffffffffffff163060096000600760008b815260200190815260200160002060030160009054906101000a900473ffffffffffffffffffffffffffffffffffffffff1673ffffffffffffffffffffffffffffffffffffffff1673ffffffffffffffffffffffffffffffffffffffff1681526020019081526020016000206000600760008b8152602001908152602001600020600401548152602001908152602001600020546126ad565b7f2b59f7e3cb11ba965d7e805fbb85a93babb292c46f8408175441b531274e0f0d600a600087815260200190815260200160002060009054906101000a900473ffffffffffffffffffffffffffffffffffffffff16836007600089815260200190815260200160002060030160009054906101000a900473ffffffffffffffffffffffffffffffffffffffff16600760008a81526020019081526020016000206004015489604051611175959493929190614191565b60405180910390a15050505050565b600b6020528060005260406000206000915090505481565b600460009054906101000a900473ffffffffffffffffffffffffffffffffffffffff1681565b600d6020528060005260406000206000915090505481565b6000858590501180156111f257508282905085859050145b611231576040517f08c379a000000000000000000000000000000000000000000000000000000000815260040161122890614256565b60405180910390fd5b61123b6001612749565b6000611247600161275f565b905060005b868690508110156112eb57600087878381811061126c5761126b614276565b5b90506020020135118015611299575060008585838181106112905761128f614276565b5b90506020020135115b6112d8576040517f08c379a00000000000000000000000000000000000000000000000000000000081526004016112cf906142f1565b60405180910390fd5b80806112e390614340565b91505061124c565b50600073ffffffffffffffffffffffffffffffffffffffff168273ffffffffffffffffffffffffffffffffffffffff16141561135c576040517f08c379a0000000000000000000000000000000000000000000000000000000008152600401611353906143fb565b60405180910390fd5b60008873ffffffffffffffffffffffffffffffffffffffff166323b872dd33308b60405160240161138f93929190613e99565b6040516020818303038152906040529060e01b6020820180517bffffffffffffffffffffffffffffffffffffffffffffffffffffffff83818316178352505050506040516113dd9190613f4a565b6000604051808303816000865af19150503d806000811461141a576040519150601f19603f3d011682016040523d82523d6000602084013e61141f565b606091505b5050905080611463576040517f08c379a000000000000000000000000000000000000000000000000000000000815260040161145a90613fd3565b60405180910390fd5b61146b61276d565b600a600084815260200190815260200160002060006101000a81548173ffffffffffffffffffffffffffffffffffffffff021916908373ffffffffffffffffffffffffffffffffffffffff1602179055506040518060c00160405280888880806020026020016040519081016040528093929190818152602001838360200280828437600081840152601f19601f820116905080830192505050505050508152602001868680806020026020016040519081016040528093929190818152602001838360200280828437600081840152601f19601f8201169050808301925050505050505081526020018473ffffffffffffffffffffffffffffffffffffffff1681526020018a73ffffffffffffffffffffffffffffffffffffffff168152602001898152602001838152506007600084815260200190815260200160002060008201518160000190805190602001906115c692919061347d565b5060208201518160010190805190602001906115e392919061347d565b5060408201518160020160006101000a81548173ffffffffffffffffffffffffffffffffffffffff021916908373ffffffffffffffffffffffffffffffffffffffff16021790555060608201518160030160006101000a81548173ffffffffffffffffffffffffffffffffffffffff021916908373ffffffffffffffffffffffffffffffffffffffff1602179055506080820151816004015560a0820151816005015590505081600860008b73ffffffffffffffffffffffffffffffffffffffff1673ffffffffffffffffffffffffffffffffffffffff16815260200190815260200160002060008a8152602001908152602001600020819055506000600960008b73ffffffffffffffffffffffffffffffffffffffff1673ffffffffffffffffffffffffffffffffffffffff16815260200190815260200160002060008a8152602001908152602001600020541415611742576117418989612775565b5b6000600960008b73ffffffffffffffffffffffffffffffffffffffff1673ffffffffffffffffffffffffffffffffffffffff16815260200190815260200160002060008a81526020019081526020016000205490507fc9f4c9f744d8073485626ec37f27bbd24f53fdfde25debba312e844838360bd5338b8b868c8c8c8c8c8a6040516117d89a9998979695949392919061449c565b60405180910390a150505050505050505050565b6000600860008473ffffffffffffffffffffffffffffffffffffffff1673ffffffffffffffffffffffffffffffffffffffff168152602001908152602001600020600083815260200190815260200160002054905061184a81610b6e565b505050565b600a6020528060005260406000206000915054906101000a900473ffffffffffffffffffffffffffffffffffffffff1681565b6008602052816000526040600020602052806000526040600020600091509150505481565b6000600860008473ffffffffffffffffffffffffffffffffffffffff1673ffffffffffffffffffffffffffffffffffffffff1681526020019081526020016000206000838152602001908152602001600020549050611905816107b8565b505050565b600560009054906101000a900473ffffffffffffffffffffffffffffffffffffffff1681565b60018060000154905081565b6009602052816000526040600020602052806000526040600020600091509150505481565b600f6020528060005260406000206000915054906101000a900473ffffffffffffffffffffffffffffffffffffffff1681565b61199c6129e8565b80600460006101000a81548173ffffffffffffffffffffffffffffffffffffffff021916908373ffffffffffffffffffffffffffffffffffffffff16021790555050565b600e6020528060005260406000206000915054906101000a900473ffffffffffffffffffffffffffffffffffffffff1681565b611a1b6129e8565b611a256000612a66565b565b60076020528060005260406000206000915090508060020160009054906101000a900473ffffffffffffffffffffffffffffffffffffffff16908060030160009054906101000a900473ffffffffffffffffffffffffffffffffffffffff16908060040154908060050154905084565b600073ffffffffffffffffffffffffffffffffffffffff16600e600088815260200190815260200160002060009054906101000a900473ffffffffffffffffffffffffffffffffffffffff1673ffffffffffffffffffffffffffffffffffffffff1614611b39576040517f08c379a0000000000000000000000000000000000000000000000000000000008152600401611b309061459e565b60405180910390fd5b3373ffffffffffffffffffffffffffffffffffffffff16600a600088815260200190815260200160002060009054906101000a900473ffffffffffffffffffffffffffffffffffffffff1673ffffffffffffffffffffffffffffffffffffffff1614611bda576040517f08c379a0000000000000000000000000000000000000000000000000000000008152600401611bd19061460a565b60405180910390fd5b600060076000888152602001908152602001600020905060005b86869050811015611c93576000878783818110611c1457611c13614276565b5b90506020020135118015611c4157506000858583818110611c3857611c37614276565b5b90506020020135115b611c80576040517f08c379a0000000000000000000000000000000000000000000000000000000008152600401611c77906142f1565b60405180910390fd5b8080611c8b90614340565b915050611bf4565b508585826000019190611ca79291906134ca565b508383826001019190611cbb9291906134ca565b50818160020160006101000a81548173ffffffffffffffffffffffffffffffffffffffff021916908373ffffffffffffffffffffffffffffffffffffffff1602179055507f1c64d2294cef44836c9acd9df135f954c6fdbb8a4e5ec3ebb44747e973936758338260030160009054906101000a900473ffffffffffffffffffffffffffffffffffffffff1683600401548a8a8a8a8a8a604051611d669998979695949392919061462a565b60405180910390a150505050505050565b60008060009054906101000a900473ffffffffffffffffffffffffffffffffffffffff16905090565b600660009054906101000a900473ffffffffffffffffffffffffffffffffffffffff1681565b600c6020528060005260406000206000915090505481565b60035481565b611dec6129e8565b8060108190555050565b6000600760008781526020019081526020016000206040518060c001604052908160008201805480602002602001604051908101604052809291908181526020018280548015611e6557602002820191906000526020600020905b815481526020019060010190808311611e51575b5050505050815260200160018201805480602002602001604051908101604052809291908181526020018280548015611ebd57602002820191906000526020600020905b815481526020019060010190808311611ea9575b505050505081526020016002820160009054906101000a900473ffffffffffffffffffffffffffffffffffffffff1673ffffffffffffffffffffffffffffffffffffffff1673ffffffffffffffffffffffffffffffffffffffff1681526020016003820160009054906101000a900473ffffffffffffffffffffffffffffffffffffffff1673ffffffffffffffffffffffffffffffffffffffff1673ffffffffffffffffffffffffffffffffffffffff1681526020016004820154815260200160058201548152505090506000611fda88338787878080601f016020809104026020016040519081016040528093929190818152602001838380828437600081840152601f19601f82011690508083019250505050505050612b2a565b9050600460009054906101000a900473ffffffffffffffffffffffffffffffffffffffff1673ffffffffffffffffffffffffffffffffffffffff168173ffffffffffffffffffffffffffffffffffffffff161461206c576040517f08c379a0000000000000000000000000000000000000000000000000000000008152600401612063906146f7565b60405180910390fd5b3a60105461207a9190614717565b3410156120bc576040517f08c379a00000000000000000000000000000000000000000000000000000000081526004016120b3906147e3565b60405180910390fd5b612100826064846020015189815181106120d9576120d8614276565b5b60200260200101516003546120ee9190614717565b6120f89190614832565b888b8b612be1565b8773ffffffffffffffffffffffffffffffffffffffff166108fc349081150290604051600060405180830381858888f19350505050158015612146573d6000803e3d6000fd5b508160000151868151811061215e5761215d614276565b5b6020026020010151426121719190614863565b600d600089815260200190815260200160002081905550600c60003373ffffffffffffffffffffffffffffffffffffffff1673ffffffffffffffffffffffffffffffffffffffff16815260200190815260200160002060008154809291906121d890614340565b919050555087600e600089815260200190815260200160002060006101000a81548173ffffffffffffffffffffffffffffffffffffffff021916908373ffffffffffffffffffffffffffffffffffffffff16021790555033600f600089815260200190815260200160002060006101000a81548173ffffffffffffffffffffffffffffffffffffffff021916908373ffffffffffffffffffffffffffffffffffffffff1602179055506122e4303360096000866060015173ffffffffffffffffffffffffffffffffffffffff1673ffffffffffffffffffffffffffffffffffffffff168152602001908152602001600020600086608001518152602001908152602001600020546126ad565b7f14316f98cc89a831b522eaf67f64a2d999c53218a4f04d8a34e49e7b93ac3bfd600a600089815260200190815260200160002060009054906101000a900473ffffffffffffffffffffffffffffffffffffffff1633846060015185608001518b8b88604001513a6040516123609897969594939291906148b9565b60405180910390a15050505050505050565b61237a6129e8565b600073ffffffffffffffffffffffffffffffffffffffff168173ffffffffffffffffffffffffffffffffffffffff1614156123ea576040517f08c379a00000000000000000000000000000000000000000000000000000000081526004016123e1906149a9565b60405180910390fd5b6123f381612a66565b50565b60606000612404600161275f565b905060008060005b83811161245357600060076000838152602001908152602001600020600401541461244057828061243c90614340565b9350505b808061244b90614340565b91505061240c565b5060008267ffffffffffffffff8111156124705761246f6149c9565b5b6040519080825280602002602001820160405280156124a957816020015b612496613517565b81526020019060019003908161248e5790505b50905060005b8481116126a257600060076000838152602001908152602001600020600401541461268f57600760008281526020019081526020016000206040518060c00160405290816000820180548060200260200160405190810160405280929190818152602001828054801561254157602002820191906000526020600020905b81548152602001906001019080831161252d575b505050505081526020016001820180548060200260200160405190810160405280929190818152602001828054801561259957602002820191906000526020600020905b815481526020019060010190808311612585575b505050505081526020016002820160009054906101000a900473ffffffffffffffffffffffffffffffffffffffff1673ffffffffffffffffffffffffffffffffffffffff1673ffffffffffffffffffffffffffffffffffffffff1681526020016003820160009054906101000a900473ffffffffffffffffffffffffffffffffffffffff1673ffffffffffffffffffffffffffffffffffffffff1673ffffffffffffffffffffffffffffffffffffffff1681526020016004820154815260200160058201548152505082848151811061267557612674614276565b5b6020026020010181905250828061268b90614340565b9350505b808061269a90614340565b9150506124af565b508094505050505090565b6000600560009054906101000a900473ffffffffffffffffffffffffffffffffffffffff1690508073ffffffffffffffffffffffffffffffffffffffff166323b872dd8585856040518463ffffffff1660e01b815260040161271193929190613e99565b600060405180830381600087803b15801561272b57600080fd5b505af115801561273f573d6000803e3d6000fd5b5050505050505050565b6001816000016000828254019250508190555050565b600081600001549050919050565b600033905090565b6000600560009054906101000a900473ffffffffffffffffffffffffffffffffffffffff169050600083905060008273ffffffffffffffffffffffffffffffffffffffff1663561892366040518163ffffffff1660e01b815260040160206040518083038186803b1580156127e957600080fd5b505afa1580156127fd573d6000803e3d6000fd5b505050506040513d601f19601f820116820180604052508101906128219190614a0d565b90508273ffffffffffffffffffffffffffffffffffffffff1663d204c45e308473ffffffffffffffffffffffffffffffffffffffff1663c87b56dd886040518263ffffffff1660e01b8152600401612879919061381b565b60006040518083038186803b15801561289157600080fd5b505afa1580156128a5573d6000803e3d6000fd5b505050506040513d6000823e3d601f19601f820116820180604052508101906128ce9190614b2c565b6040518363ffffffff1660e01b81526004016128eb929190614b75565b600060405180830381600087803b15801561290557600080fd5b505af1158015612919573d6000803e3d6000fd5b5050505080600960008773ffffffffffffffffffffffffffffffffffffffff1673ffffffffffffffffffffffffffffffffffffffff1681526020019081526020016000206000868152602001908152602001600020819055508273ffffffffffffffffffffffffffffffffffffffff1663d01ab8ee8287876040518463ffffffff1660e01b81526004016129af93929190614ba5565b600060405180830381600087803b1580156129c957600080fd5b505af11580156129dd573d6000803e3d6000fd5b505050505050505050565b6129f061276d565b73ffffffffffffffffffffffffffffffffffffffff16612a0e611d77565b73ffffffffffffffffffffffffffffffffffffffff1614612a64576040517f08c379a0000000000000000000000000000000000000000000000000000000008152600401612a5b90614c28565b60405180910390fd5b565b60008060009054906101000a900473ffffffffffffffffffffffffffffffffffffffff169050816000806101000a81548173ffffffffffffffffffffffffffffffffffffffff021916908373ffffffffffffffffffffffffffffffffffffffff1602179055508173ffffffffffffffffffffffffffffffffffffffff168173ffffffffffffffffffffffffffffffffffffffff167f8be0079c531659141344cd1fd0a4f28419497f9722a3daafe3b4186f6b6457e060405160405180910390a35050565b600080831480612b3a5750428310155b612b79576040517f08c379a0000000000000000000000000000000000000000000000000000000008152600401612b7090614c94565b60405180910390fd5b6000612b83612f9c565b90506000612b9287878761306a565b905060008282604051602001612ba9929190614d2c565b604051602081830303815290604052805190602001209050612bd4858261310190919063ffffffff16565b9350505050949350505050565b6000856040015173ffffffffffffffffffffffffffffffffffffffff166323b872dd33600260009054906101000a900473ffffffffffffffffffffffffffffffffffffffff1688604051602401612c3a93929190613e99565b6040516020818303038152906040529060e01b6020820180517bffffffffffffffffffffffffffffffffffffffffffffffffffffffff8381831617835250505050604051612c889190613f4a565b6000604051808303816000865af19150503d8060008114612cc5576040519150601f19603f3d011682016040523d82523d6000602084013e612cca565b606091505b50508091505080612d10576040517f08c379a0000000000000000000000000000000000000000000000000000000008152600401612d0790614dfb565b60405180910390fd5b856040015173ffffffffffffffffffffffffffffffffffffffff166323b872dd3330888a602001518981518110612d4a57612d49614276565b5b6020026020010151612d5c9190614e1b565b604051602401612d6e93929190613e99565b6040516020818303038152906040529060e01b6020820180517bffffffffffffffffffffffffffffffffffffffffffffffffffffffff8381831617835250505050604051612dbc9190613f4a565b6000604051808303816000865af19150503d8060008114612df9576040519150601f19603f3d011682016040523d82523d6000602084013e612dfe565b606091505b50508091505080612e44576040517f08c379a0000000000000000000000000000000000000000000000000000000008152600401612e3b90614dfb565b60405180910390fd5b856060015173ffffffffffffffffffffffffffffffffffffffff166323b872dd30858960800151604051602401612e7d93929190613e99565b6040516020818303038152906040529060e01b6020820180517bffffffffffffffffffffffffffffffffffffffffffffffffffffffff8381831617835250505050604051612ecb9190613f4a565b6000604051808303816000865af19150503d8060008114612f08576040519150601f19603f3d011682016040523d82523d6000602084013e612f0d565b606091505b50508091505080612f53576040517f08c379a0000000000000000000000000000000000000000000000000000000008152600401612f4a90614ee7565b60405180910390fd5b8486602001518581518110612f6b57612f6a614276565b5b6020026020010151612f7d9190614e1b565b600b600084815260200190815260200160002081905550505050505050565b60007f8b73c3c69bb8fe3d512ecc4cf759cc79239f7b179b0ffacaa9a75d522b39400f6040518060400160405280600781526020017f4c6f616e4e465400000000000000000000000000000000000000000000000000815250805190602001206040518060400160405280600181526020017f310000000000000000000000000000000000000000000000000000000000000081525080519060200120463060405160200161304f959493929190614f07565b60405160208183030381529060405280519060200120905090565b60007f3c0f25aaf740d1eb22a45ec2419afa8a9f94960ecf48e9109d79db2d5834b6e984600c60008673ffffffffffffffffffffffffffffffffffffffff1673ffffffffffffffffffffffffffffffffffffffff16815260200190815260200160002054846040516020016130e29493929190614f5a565b6040516020818303038152906040528051906020012090509392505050565b60008060006131108585613128565b9150915061311d8161317a565b819250505092915050565b60008060418351141561316a5760008060006020860151925060408601519150606086015160001a905061315e8782858561334f565b94509450505050613173565b60006002915091505b9250929050565b6000600481111561318e5761318d614f9f565b5b8160048111156131a1576131a0614f9f565b5b14156131ac5761334c565b600160048111156131c0576131bf614f9f565b5b8160048111156131d3576131d2614f9f565b5b1415613214576040517f08c379a000000000000000000000000000000000000000000000000000000000815260040161320b9061501a565b60405180910390fd5b6002600481111561322857613227614f9f565b5b81600481111561323b5761323a614f9f565b5b141561327c576040517f08c379a000000000000000000000000000000000000000000000000000000000815260040161327390615086565b60405180910390fd5b600360048111156132905761328f614f9f565b5b8160048111156132a3576132a2614f9f565b5b14156132e4576040517f08c379a00000000000000000000000000000000000000000000000000000000081526004016132db90615118565b60405180910390fd5b6004808111156132f7576132f6614f9f565b5b81600481111561330a57613309614f9f565b5b141561334b576040517f08c379a0000000000000000000000000000000000000000000000000000000008152600401613342906151aa565b60405180910390fd5b5b50565b6000807f7fffffffffffffffffffffffffffffff5d576e7357a4501ddfe92f46681b20a08360001c111561338a576000600391509150613453565b601b8560ff16141580156133a25750601c8560ff1614155b156133b4576000600491509150613453565b6000600187878787604051600081526020016040526040516133d994939291906151e6565b6020604051602081039080840390855afa1580156133fb573d6000803e3d6000fd5b505050602060405103519050600073ffffffffffffffffffffffffffffffffffffffff168173ffffffffffffffffffffffffffffffffffffffff16141561344a57600060019250925050613453565b80600092509250505b94509492505050565b508054600082559060005260206000209081019061347a9190613579565b50565b8280548282559060005260206000209081019282156134b9579160200282015b828111156134b857825182559160200191906001019061349d565b5b5090506134c69190613579565b5090565b828054828255906000526020600020908101928215613506579160200282015b828111156135055782358255916020019190600101906134ea565b5b5090506135139190613579565b5090565b6040518060c001604052806060815260200160608152602001600073ffffffffffffffffffffffffffffffffffffffff168152602001600073ffffffffffffffffffffffffffffffffffffffff16815260200160008152602001600081525090565b5b8082111561359257600081600090555060010161357a565b5090565b6000819050919050565b6135a981613596565b82525050565b60006020820190506135c460008301846135a0565b92915050565b6000604051905090565b600080fd5b600080fd5b6000819050919050565b6135f1816135de565b81146135fc57600080fd5b50565b60008135905061360e816135e8565b92915050565b60006020828403121561362a576136296135d4565b5b6000613638848285016135ff565b91505092915050565b600073ffffffffffffffffffffffffffffffffffffffff82169050919050565b600061366c82613641565b9050919050565b61367c81613661565b82525050565b60006020820190506136976000830184613673565b92915050565b6136a681613661565b81146136b157600080fd5b50565b6000813590506136c38161369d565b92915050565b600080fd5b600080fd5b600080fd5b60008083601f8401126136ee576136ed6136c9565b5b8235905067ffffffffffffffff81111561370b5761370a6136ce565b5b602083019150836001820283011115613727576137266136d3565b5b9250929050565b60008060008060006080868803121561374a576137496135d4565b5b6000613758888289016136b4565b9550506020613769888289016136b4565b945050604061377a888289016135ff565b935050606086013567ffffffffffffffff81111561379b5761379a6135d9565b5b6137a7888289016136d8565b92509250509295509295909350565b60007fffffffff0000000000000000000000000000000000000000000000000000000082169050919050565b6137eb816137b6565b82525050565b600060208201905061380660008301846137e2565b92915050565b613815816135de565b82525050565b6000602082019050613830600083018461380c565b92915050565b60008083601f84011261384c5761384b6136c9565b5b8235905067ffffffffffffffff811115613869576138686136ce565b5b602083019150836020820283011115613885576138846136d3565b5b9250929050565b600080600080600080600060a0888a0312156138ab576138aa6135d4565b5b60006138b98a828b016136b4565b97505060206138ca8a828b016135ff565b965050604088013567ffffffffffffffff8111156138eb576138ea6135d9565b5b6138f78a828b01613836565b9550955050606088013567ffffffffffffffff81111561391a576139196135d9565b5b6139268a828b01613836565b935093505060806139398a828b016136b4565b91505092959891949750929550565b6000806040838503121561395f5761395e6135d4565b5b600061396d858286016136b4565b925050602061397e858286016135ff565b9150509250929050565b60006020828403121561399e5761399d6135d4565b5b60006139ac848285016136b4565b91505092915050565b60006080820190506139ca6000830187613673565b6139d76020830186613673565b6139e4604083018561380c565b6139f1606083018461380c565b95945050505050565b60008060008060008060808789031215613a1757613a166135d4565b5b6000613a2589828a016135ff565b965050602087013567ffffffffffffffff811115613a4657613a456135d9565b5b613a5289828a01613836565b9550955050604087013567ffffffffffffffff811115613a7557613a746135d9565b5b613a8189828a01613836565b93509350506060613a9489828a016136b4565b9150509295509295509295565b6000819050919050565b6000613ac6613ac1613abc84613641565b613aa1565b613641565b9050919050565b6000613ad882613aab565b9050919050565b6000613aea82613acd565b9050919050565b613afa81613adf565b82525050565b6000602082019050613b156000830184613af1565b92915050565b60008060008060008060a08789031215613b3857613b376135d4565b5b6000613b4689828a016136b4565b9650506020613b5789828a016135ff565b9550506040613b6889828a016135ff565b9450506060613b7989828a016135ff565b935050608087013567ffffffffffffffff811115613b9a57613b996135d9565b5b613ba689828a016136d8565b92509250509295509295509295565b600081519050919050565b600082825260208201905092915050565b6000819050602082019050919050565b600081519050919050565b600082825260208201905092915050565b6000819050602082019050919050565b613c16816135de565b82525050565b6000613c288383613c0d565b60208301905092915050565b6000602082019050919050565b6000613c4c82613be1565b613c568185613bec565b9350613c6183613bfd565b8060005b83811015613c92578151613c798882613c1c565b9750613c8483613c34565b925050600181019050613c65565b5085935050505092915050565b613ca881613661565b82525050565b600060c0830160008301518482036000860152613ccb8282613c41565b91505060208301518482036020860152613ce58282613c41565b9150506040830151613cfa6040860182613c9f565b506060830151613d0d6060860182613c9f565b506080830151613d206080860182613c0d565b5060a0830151613d3360a0860182613c0d565b508091505092915050565b6000613d4a8383613cae565b905092915050565b6000602082019050919050565b6000613d6a82613bb5565b613d748185613bc0565b935083602082028501613d8685613bd1565b8060005b85811015613dc25784840389528151613da38582613d3e565b9450613dae83613d52565b925060208a01995050600181019050613d8a565b50829750879550505050505092915050565b60006020820190508181036000830152613dee8184613d5f565b905092915050565b600082825260208201905092915050565b7f5b4c4f414e204e46545d3a206d757374206265206f776e657220746f2064656c60008201527f6973740000000000000000000000000000000000000000000000000000000000602082015250565b6000613e63602383613df6565b9150613e6e82613e07565b604082019050919050565b60006020820190508181036000830152613e9281613e56565b9050919050565b6000606082019050613eae6000830186613673565b613ebb6020830185613673565b613ec8604083018461380c565b949350505050565b600081519050919050565b600081905092915050565b60005b83811015613f04578082015181840152602081019050613ee9565b83811115613f13576000848401525b50505050565b6000613f2482613ed0565b613f2e8185613edb565b9350613f3e818560208601613ee6565b80840191505092915050565b6000613f568284613f19565b915081905092915050565b7f5b4c4f414e204e46545d3a204552433732313a2063616c6c6572206973206e6f60008201527f7420746f6b656e206f776e6572206e6f7220617070726f766564000000000000602082015250565b6000613fbd603a83613df6565b9150613fc882613f61565b604082019050919050565b60006020820190508181036000830152613fec81613fb0565b9050919050565b7f5b4c4f414e204e46545d3a204e667420696e20686972652070726f6772657373600082015250565b6000614029602083613df6565b915061403482613ff3565b602082019050919050565b600060208201905081810360008301526140588161401c565b9050919050565b7f5b4c4f414e204e46545d3a204d757374206265207468652070726f787920746f60008201527f2063616c6c000000000000000000000000000000000000000000000000000000602082015250565b60006140bb602583613df6565b91506140c68261405f565b604082019050919050565b600060208201905081810360008301526140ea816140ae565b9050919050565b60006040820190506141066000830185613673565b614113602083018461380c565b9392505050565b600081519050919050565b6000601f19601f8301169050919050565b60006141418261411a565b61414b8185613df6565b935061415b818560208601613ee6565b61416481614125565b840191505092915050565b600060208201905081810360008301526141898184614136565b905092915050565b600060a0820190506141a66000830188613673565b6141b36020830187613673565b6141c06040830186613673565b6141cd606083018561380c565b6141da608083018461380c565b9695505050505050565b7f5b4c4f414e204e46545d3a20696e707574206172726179206d7573742062652060008201527f7468652073616d65206c656e6774680000000000000000000000000000000000602082015250565b6000614240602f83613df6565b915061424b826141e4565b604082019050919050565b6000602082019050818103600083015261426f81614233565b9050919050565b7f4e487b7100000000000000000000000000000000000000000000000000000000600052603260045260246000fd5b7f5b4c4f414e204e46545d3a20696e76616c696420696e70757420646174610000600082015250565b60006142db601e83613df6565b91506142e6826142a5565b602082019050919050565b6000602082019050818103600083015261430a816142ce565b9050919050565b7f4e487b7100000000000000000000000000000000000000000000000000000000600052601160045260246000fd5b600061434b826135de565b91507fffffffffffffffffffffffffffffffffffffffffffffffffffffffffffffffff82141561437e5761437d614311565b5b600182019050919050565b7f5b4c4f414e204e46545d3a20696e76616c6964207061796d656e7420746f6b6560008201527f6e00000000000000000000000000000000000000000000000000000000000000602082015250565b60006143e5602183613df6565b91506143f082614389565b604082019050919050565b60006020820190508181036000830152614414816143d8565b9050919050565b600082825260208201905092915050565b600080fd5b82818337600083830152505050565b600061444c838561441b565b93507f07ffffffffffffffffffffffffffffffffffffffffffffffffffffffffffffff83111561447f5761447e61442c565b5b602083029250614490838584614431565b82840190509392505050565b6000610100820190506144b2600083018d613673565b6144bf602083018c613673565b6144cc604083018b61380c565b6144d9606083018a61380c565b81810360808301526144ec81888a614440565b905081810360a0830152614501818688614440565b905061451060c0830185613673565b61451d60e083018461380c565b9b9a5050505050505050505050565b7f5b4c4f414e204e46545d2063616e6e6f742065646974207768696c652074686560008201527f206974656d2069732072656e74696e6700000000000000000000000000000000602082015250565b6000614588603083613df6565b91506145938261452c565b604082019050919050565b600060208201905081810360008301526145b78161457b565b9050919050565b7f5b4c4f414e204e46545d3a20696e76616c6964206974656d206c697374657200600082015250565b60006145f4601f83613df6565b91506145ff826145be565b602082019050919050565b60006020820190508181036000830152614623816145e7565b9050919050565b600060e08201905061463f600083018c613673565b61464c602083018b613673565b614659604083018a61380c565b614666606083018961380c565b8181036080830152614679818789614440565b905081810360a083015261468e818587614440565b905061469d60c0830184613673565b9a9950505050505050505050565b7f5b4c4f414e204e46545d3a20496e76616c6964207369676e6174757265000000600082015250565b60006146e1601d83613df6565b91506146ec826146ab565b602082019050919050565b60006020820190508181036000830152614710816146d4565b9050919050565b6000614722826135de565b915061472d836135de565b9250817fffffffffffffffffffffffffffffffffffffffffffffffffffffffffffffffff048311821515161561476657614765614311565b5b828202905092915050565b7f5b4c4f414e204e46545d3a2067617320707269636520666f722074686520726560008201527f7475726e206973206e6f7420656e6f7567680000000000000000000000000000602082015250565b60006147cd603283613df6565b91506147d882614771565b604082019050919050565b600060208201905081810360008301526147fc816147c0565b9050919050565b7f4e487b7100000000000000000000000000000000000000000000000000000000600052601260045260246000fd5b600061483d826135de565b9150614848836135de565b92508261485857614857614803565b5b828204905092915050565b600061486e826135de565b9150614879836135de565b9250827fffffffffffffffffffffffffffffffffffffffffffffffffffffffffffffffff038211156148ae576148ad614311565b5b828201905092915050565b6000610100820190506148cf600083018b613673565b6148dc602083018a613673565b6148e96040830189613673565b6148f6606083018861380c565b614903608083018761380c565b61491060a083018661380c565b61491d60c0830185613673565b61492a60e083018461380c565b9998505050505050505050565b7f4f776e61626c653a206e6577206f776e657220697320746865207a65726f206160008201527f6464726573730000000000000000000000000000000000000000000000000000602082015250565b6000614993602683613df6565b915061499e82614937565b604082019050919050565b600060208201905081810360008301526149c281614986565b9050919050565b7f4e487b7100000000000000000000000000000000000000000000000000000000600052604160045260246000fd5b600081519050614a07816135e8565b92915050565b600060208284031215614a2357614a226135d4565b5b6000614a31848285016149f8565b91505092915050565b600080fd5b614a4882614125565b810181811067ffffffffffffffff82111715614a6757614a666149c9565b5b80604052505050565b6000614a7a6135ca565b9050614a868282614a3f565b919050565b600067ffffffffffffffff821115614aa657614aa56149c9565b5b614aaf82614125565b9050602081019050919050565b6000614acf614aca84614a8b565b614a70565b905082815260208101848484011115614aeb57614aea614a3a565b5b614af6848285613ee6565b509392505050565b600082601f830112614b1357614b126136c9565b5b8151614b23848260208601614abc565b91505092915050565b600060208284031215614b4257614b416135d4565b5b600082015167ffffffffffffffff811115614b6057614b5f6135d9565b5b614b6c84828501614afe565b91505092915050565b6000604082019050614b8a6000830185613673565b8181036020830152614b9c8184614136565b90509392505050565b6000606082019050614bba600083018661380c565b614bc76020830185613673565b614bd4604083018461380c565b949350505050565b7f4f776e61626c653a2063616c6c6572206973206e6f7420746865206f776e6572600082015250565b6000614c12602083613df6565b9150614c1d82614bdc565b602082019050919050565b60006020820190508181036000830152614c4181614c05565b9050919050565b7f5b4c4f414e204e46545d3a205369676e61747572652065787069726564000000600082015250565b6000614c7e601d83613df6565b9150614c8982614c48565b602082019050919050565b60006020820190508181036000830152614cad81614c71565b9050919050565b600081905092915050565b7f1901000000000000000000000000000000000000000000000000000000000000600082015250565b6000614cf5600283614cb4565b9150614d0082614cbf565b600282019050919050565b6000819050919050565b614d26614d2182613596565b614d0b565b82525050565b6000614d3782614ce8565b9150614d438285614d15565b602082019150614d538284614d15565b6020820191508190509392505050565b7f5b4c4f414e204e46545d3a2045524332303a207472616e7366657220746f6b6560008201527f6e3a2063616c6c6572206973206e6f7420746f6b656e206f776e6572206e6f7260208201527f20617070726f7665640000000000000000000000000000000000000000000000604082015250565b6000614de5604983613df6565b9150614df082614d63565b606082019050919050565b60006020820190508181036000830152614e1481614dd8565b9050919050565b6000614e26826135de565b9150614e31836135de565b925082821015614e4457614e43614311565b5b828203905092915050565b7f5b4c4f414e204e46545d3a204552433732313a207472616e73666572206e667460008201527f3a2063616c6c6572206973206e6f7420746f6b656e206f776e6572206e6f722060208201527f617070726f766564000000000000000000000000000000000000000000000000604082015250565b6000614ed1604883613df6565b9150614edc82614e4f565b606082019050919050565b60006020820190508181036000830152614f0081614ec4565b9050919050565b600060a082019050614f1c60008301886135a0565b614f2960208301876135a0565b614f3660408301866135a0565b614f43606083018561380c565b614f506080830184613673565b9695505050505050565b6000608082019050614f6f60008301876135a0565b614f7c6020830186613673565b614f89604083018561380c565b614f96606083018461380c565b95945050505050565b7f4e487b7100000000000000000000000000000000000000000000000000000000600052602160045260246000fd5b7f45434453413a20696e76616c6964207369676e61747572650000000000000000600082015250565b6000615004601883613df6565b915061500f82614fce565b602082019050919050565b6000602082019050818103600083015261503381614ff7565b9050919050565b7f45434453413a20696e76616c6964207369676e6174757265206c656e67746800600082015250565b6000615070601f83613df6565b915061507b8261503a565b602082019050919050565b6000602082019050818103600083015261509f81615063565b9050919050565b7f45434453413a20696e76616c6964207369676e6174757265202773272076616c60008201527f7565000000000000000000000000000000000000000000000000000000000000602082015250565b6000615102602283613df6565b915061510d826150a6565b604082019050919050565b60006020820190508181036000830152615131816150f5565b9050919050565b7f45434453413a20696e76616c6964207369676e6174757265202776272076616c60008201527f7565000000000000000000000000000000000000000000000000000000000000602082015250565b6000615194602283613df6565b915061519f82615138565b604082019050919050565b600060208201905081810360008301526151c381615187565b9050919050565b600060ff82169050919050565b6151e0816151ca565b82525050565b60006080820190506151fb60008301876135a0565b61520860208301866151d7565b61521560408301856135a0565b61522260608301846135a0565b9594505050505056fea26469706673582212202f9d30a2c7981e0c153e1657e6f64cfecc7b0dc71e4d9adc5269fc3bac38a2e264736f6c63430008090033",
  "linkReferences": {},
  "deployedLinkReferences": {}
}